:020000040800F2
:10000000C86400206D020008DF3C00088F2C000847
:10001000DD3C000857090008D14800080000000036
:10002000000000000000000000000000AD0100081A
:10003000150A000800000000090200082941000814
:10004000870200088702000887020008870200086C
:10005000870200088702000887020008870200085C
:10006000870200088702000887020008870200084C
:10007000870200088702000887020008870200083C
:1000800087020008870200088702000800000000BD
:1000900000000000000000000000000087020008CF
:1000A00087020008FD410008870200088702000857
:1000B0008702000887020008870200089D2C0008BC
:1000C000912C0008870200088702000887020008B8
:1000D0008702000895480008870200080000000019
:1000E000870200088702000887020008000000005D
:1000F000000000000000000000000000870200086F
:10010000000000008702000887020008870200083C
:1001100000000000000000000000000000000000DF
:1001200087020008870200085909000887020008B2
:10013000870200080000000000000000000000002E
:10014000000000000000000000000000870200081E
:100150008702000887020008650900088702000876
:10016000870200088702000800000000000000006D
:10017000000000000000000000000000000000007F
:1001800000000000870200080000000000000000DE
:100190008702000887020008DFF80CD000F08CFB13
:1001A0000048004755560008C86400202C4B1968C9
:1001B0000868B0E8F04F80F30988BFF36F8F4FF005
:1001C000000080F3118870470000000008480068B4
:1001D000006880F308884FF0000080F3148862B64E
:1001E00061B6BFF34F8FBFF36F8F00DF00BF00BF5B
:1001F00008ED00E0DFF80C00016841F470010160D7
:10020000704700BF88ED00E0EFF30980BFF36F8F08
:10021000134B1A681EF0100F08BF20ED108A20E95A
:10022000F04F106009B44FF0500080F31188BFF315
:100230004F8FBFF36F8F06F05FFC4FF0000080F32D
:10024000118809BC19680868B0E8F04F1EF0100F5B
:1002500008BFB0EC108A80F30988BFF36F8F704736
:1002600020010020EFF3058070470000064880471A
:1002700006480047FEE7FEE7FEE7FEE7FEE7FEE78B
:10028000FEE7FEE7FEE7FEE7D5410008990100081A
:100290002DE9F05F0546002092469B4688460646BB
:1002A000814640241BE0284641464746224600F04E
:1002B00019F953465A46C01A914110D311461846AF
:1002C000224600F000F92D1A67EB01084F4622463E
:1002D0000120002100F0F7F817EB00094E41201E25
:1002E000A4F10104DFDC484631462A464346BDE816
:1002F000F09F40EA01039B0703D009E008C9121FE1
:1003000008C0042AFAD203E011F8013B00F8013BCF
:10031000521EF9D27047D2B201E000F8012B491EFB
:10032000FBD270470022F6E710B513460A46044692
:100330001946FFF7F0FF204610BD421C10F8011BC4
:100340000029FBD1801A704710B5002200E0521C32
:10035000835C8C5CA34201D1002BF8D1D8B2E1B20E
:10036000401A10BD2DE9FE4F81EA030404F0004459
:1003700021F0004100944FF0000B23F0004350EABD
:1003800001045ED052EA03045BD0C3F30A54C1F304
:100390000A552C44A4F2F3340194A0FB0254C1F397
:1003A000130141F48011C3F3130343F4801301FBE1
:1003B000024400FB034E840A970A44EA815447EA48
:1003C0008357A4FB076802958D0A05FB07854FEA52
:1003D000932C04FB0C542705029D4FEA065847EA6C
:1003E0001637B5EB08056EEB070C870E920E47EA41
:1003F000811742EA8312A7FB0201B6EB0B0164EB03
:1004000000042B0D43EA0C335E1844EB1C50DA4613
:100410005146E7FB0201C5F313044FEA0B3343EAED
:1004200014534FEA0432019C43EA0603A4F10C047E
:100430000294009CCDE900B400F0AAF803B0BDE836
:10044000F08F00200146F9E70EB540F233410291EA
:100450000021CDE900110A460B4600F099F803B0DF
:1004600000BD01F0004330B421F0004150EA010228
:1004700006D00A0DA2F56072C1F31301002A02DC56
:1004800030BC00207047440F44EAC104C100E018AA
:1004900030BC00EBC25000F035B830B50B46014619
:1004A00000202022012409E021FA02F59D4205D313
:1004B00003FA02F5491B04FA02F52844151EA2F1BD
:1004C0000102F1DC30BD202A04DB203A00FA02F1FF
:1004D000002070479140C2F1200320FA03F3194332
:1004E00090407047202A04DB203A21FA02F00021D4
:1004F000704721FA02F3D040C2F120029140084334
:10050000194670470029A8BF7047401C490008BF22
:1005100020F00100704710B4B0FA80FC00FA0CF033
:1005200050EA010404BF10BC704749B1CCF120046B
:1005300021FA04F411FA0CF118BF012121430843F8
:10054000A3EB0C01CB1D4FEA00614FEA102042BF24
:10055000002010BC704700EBC35010440029A4BF1A
:1005600010BC7047401C490008BF20F0010010BCBF
:10057000704710B5141E73F1000408DA401C41F1F5
:10058000000192185B411A4301D120F0010010BD17
:100590002DE9F04D92469B4611B1B1FA81F202E08D
:1005A000B0FA80F220329046FFF78DFF04460F46E6
:1005B00040EA0A0041EA0B0153465A46084313D069
:1005C000114653EA010019D0C8F140025046FFF726
:1005D00089FF05460E46504659464246FFF773FFCF
:1005E000084305D0012004E020463946BDE8F08DDF
:1005F0000020054346EAE0762C4337430A9863051A
:10060000E40AA0EB08000022FD0A44EA47540A303D
:1006100002D500200146E9E7010510196941DDE92D
:10062000084500196941BDE8F04DA2E72DE9FE4FEC
:10063000804681EA0300C00F0C46009021F0004183
:1006400023F00045B8EB0200A94105D240462146FF
:1006500090461C460B46024623F00040104347D00C
:10066000270DC7F30A00C3F30A510290401A019004
:1006700040286BDAC3F3130040F4801B00989246C5
:1006800020B10023D2EB030A63EB0B0B0198594610
:10069000C0F140025046FFF716FF06460D46504691
:1006A0005946019A00F01AF910EB08006141002444
:1006B00087EA115284EAE7731A4340D0009A62B382
:1006C000019A012A4FEA075215DC001B61EB020177
:1006D0004FF0004202EA0752CDE90042001C41F50A
:1006E000801132462B46FFF753FF03B0BDE8F08F71
:1006F00040462146F9E7001B61EB0201001C41F571
:10070000801300185B412018A2F5001747EB030186
:1007100040EAD570B6196D4111E06D084FEA360612
:1007200045EAC0754FEA0752001B61EB0201001C4D
:1007300041F5801149084FEA300000195141324615
:100740002B4603B0BDE8F04FFFF713BF009801221E
:1007500040000023D0EB020263EBE07300982146D7
:100760004FEAE074B8EB000061EB0401E9E783F0C5
:1007700000435BE781F0004158E72DE9F04D81EA45
:10078000030404F0004B21F0004514464FF0000A2A
:1007900023F0004150EA050220D054EA01021DD0A6
:1007A000C5F30A570246C5F31303C1F31300C1F39F
:1007B0000A5640F4801543F48013A7EB0608101B7B
:1007C000D64608F2FD3873EB050002D308F10108A4
:1007D00001E092185B41B8F1000F03DA00200146F6
:1007E000BDE8F08D00204FF48011064684460EE0EF
:1007F000171B73EB050705D3121B63EB05030643B9
:100800004CEA010C49084FEA300092185B4150EA6B
:100810000107EDD152EA030012D082EA040083EA14
:100820000501084305D0101BAB4106D2012200236D
:1008300006E000224FF0004302E06FF00102531087
:100840001AEB06004CEB085110EB0A0041EB0B01D0
:10085000BDE8F04DFFF78DBEC1F30A52C1F313019D
:1008600040F2FF3341F480119A4202DA002001463F
:10087000704740F233439A42A2F2334202DC5242C2
:10088000FFF730BEFFF71FBE30B5041E71F1000444
:1008900004DB4FF00044404264EB0101141E73F18D
:1008A000000405DB1C464FF00043524263EB040397
:1008B000994208BF904230BD064C074D06E0E06803
:1008C00040F0010394E8070098471034AC42F6D397
:1008D000FFF766FCA47E0008C47E0008202A06DB21
:1008E000CB17203A41FA02F043EAE07306E041FAFE
:1008F00002F3D040C2F120029140084319467047EC
:1009000070B58C1810F8015B15F0070301D110F8D1
:10091000013B2A1106D110F8012B03E010F8016BFE
:1009200001F8016B5B1EF9D12B0705D40023521E81
:100930000DD401F8013BFAE710F8013BCB1A921CE9
:1009400003E013F8015B01F8015B521EF9D5A142E7
:10095000D8D3002070BDFEE7014800F069B900005F
:1009600078040020014800F063B90000D80400209A
:1009700001681823CAB2103AB2FBF3F2054B6FF3C9
:100980000901032A9B5CC36500D9091D81650846DE
:1009900070470000047D000810B5014600208B69F7
:1009A0008A6A4FF0C07453B1B3F5005F15D072B1CD
:1009B000012A0CD0022A0AD0032A09D104E01AB174
:1009C000012A06D0022A03D1C96AC90100D5012033
:1009D00010BDC96AA142FAD010BD002AF7D0012A81
:1009E000F2D0022AF3D0032AF3D010BD30B5046848
:1009F000256825F480252560046863608368402BA2
:100A0000036803D099600068C26030BD9A600068D6
:100A1000C16030BD704710B50C4602F01DFE204687
:100A2000BDE8104003F05CB972B6FEE710B58AB0BD
:100A3000684602F031FE444CF0B300F00DFCE16872
:100A4000D9B3411A00EE101AF8EE400A9FED3F1A92
:100A50003F4A80EE810A9FED3F1A10EE101A914234
:100A600001DDB0EE410A6188642912D2DDED080A89
:100A7000D4ED051A491C89B270EEA10A6429C4EDAF
:100A8000050A618005D3DFED341A80EEA12A84EDDA
:100A9000042ADDED030ADDED041A60EEA00A41EE42
:100AA000A10ADDED051A41EEA10AF7EE001A70EE7B
:100AB000E10AF0EEE00A01E02EE031E010EE901ADB
:100AC000914213DAD4ED040ADFED241A60EEA10A94
:100AD000DDED081A41EE810A9FED211AC4ED040AEA
:100AE000D4ED020A60EE810AC4ED020ADDED080AC7
:100AF00094ED041A1B4A30EEC11AD4ED020A41EEFD
:100B0000000A9FED191A10EE901AC4ED020A9142E4
:100B10000ADCB0EE600A0BE094ED020A0AB010BDE8
:100B20009FED120AE060F9E730EEC10A84ED020A97
:100B300010EE101A0E4A914203D930EE010A84EDEC
:100B4000020AE060EAE70000A001002000007A4409
:100B5000CDCCCC3D0AD7233C0000C842A4707D3FD9
:100B600077BE7F3F000034430000B4430000000024
:100B7000000034C32DE9F0410446876D00F06CFBA2
:100B8000064694F835000025022806D080206065CE
:100B900084F834500120BDE8F0812068016821F01C
:100BA000160101602068416921F080014161206CDB
:100BB00008B9A06C20B12068016821F0080101602B
:100BC0002068016821F0010101600CE000F044FBA5
:100BD000801B052807D920206065032084F8350094
:100BE00084F83450D7E720680068C007EED194F845
:100BF0005C103F208840B860012084F8350084F8FC
:100C000034500020C7E790F83510022903D0802126
:100C1000416501207047052180F8351000680168A2
:100C200021F0010101600020704790F83500704705
:100C30002DE9F84304464FF00009CDF800906348D1
:100C40004FF41651A56D0068B0FBF1F72E6894F8CB
:100C50005C10082000FA01F131420FD021680A68C7
:100C600052070BD50A6822F004020A6094F85C105F
:100C70008840A860606D40F00100606594F85C10E9
:100C80004FF0010808FA01F0304208D021684969A4
:100C9000090604D5A860606D40F00200606594F814
:100CA0005C1004208840304208D021680968890718
:100CB00004D5A860606D40F00400606594F85C1095
:100CC00010208840304218D021680968090714D5DF
:100CD000A86020680168490304D50068000308D5AE
:100CE000A16C07E00168C90503D4016821F008017F
:100CF0000160216C09B12046884794F85C102020DF
:100D00008840304231D021680968C9062DD5A860D5
:100D100094F8350005282068016806D0490347D5B6
:100D2000006800031DD4616C1CE021F01601016015
:100D30002068416921F080014161206C08B9A06CF4
:100D400020B12068016821F00801016094F85C106E
:100D50003F208840A86084F8358084F83490216D65
:100D60001FE0E16B09B120468847606D00282BD059
:100D7000606DC00714D0052084F835002068016834
:100D800021F0010101600098401C0090B84203D896
:100D900020680068C007F6D184F8358084F8349064
:100DA000E16C002910D001B02046BDE8F0430847AF
:100DB0000168C905D5D4016821F01001016084F8EB
:100DC000358084F83490CCE7BDE8F8831C0100201E
:100DD0002DE9F041044600F03FFA06465CB10220DE
:100DE00084F83500002584F834502068016821F02B
:100DF000010101600DE00120BDE8F08100F02CFA56
:100E0000801B052805D920206065032084F8350063
:100E1000F2E720680068C007F0D122681168204816
:100E20000140D4E901031843D4E90336334318439E
:100E300063691843A3691843E3691843236A184395
:100E40000843616A042903D1D4E90B131943084309
:100E5000106020684069666A20F0070130460E4342
:100E6000012704280CD1A06A0643E06A40B120465D
:100E7000FFF792FD20B14020606584F83570BAE735
:100E8000206846612046FFF773FD94F85C203F21FF
:100E900091408160656584F835700020ACE7000002
:100EA0003F8010F02DE9F0410446866D90F8340043
:100EB000002501280DD0012084F8340094F8357005
:100EC0000020012F07D084F8340002252846BDE811
:100ED000F0810220FBE7022784F835706065204628
:100EE000FFF784FD94F85C103F208840B0602068D4
:100EF000016841F016010160206C20B12068016892
:100F000041F0080101602068016841F001010160C1
:100F1000DCE7000070B5044600F09EF90546601C51
:100F200002D004480078044400F096F9401BA04227
:100F3000FAD370BD100100202DE9F04F0022DFF838
:100F400008B101264FF00F0906FA02F401EA040382
:100F5000A34274D122F003075F44D7F808889507AD
:100F60004FEA157C09FA0CFA0AEA0805DFF8DC807A
:100F7000404502D14FF000081DE0DFF8D480404525
:100F800002D14FF0010816E0DFF8C880404502D1D9
:100F90004FF002080FE0DFF8C080404502D14FF06B
:100FA000030808E0DFF8B480404502D14FF00408A0
:100FB00001E04FF0070808FA0CF8A84522D1284DA7
:100FC000D5F800C02CEA030CC5F800C02D1DD5F8DB
:100FD00000C02CEA030CC5F800C0214D0C35D5F833
:100FE00000C02CEA030CC5F800C02D1FD5F800C0C6
:100FF0002CEA030CC5F800C0D7F8085825EA0A0502
:10100000C7F80858056857000323BB409D43056097
:10101000D50800EB8505D5F820C057074FEAD768FB
:1010200009FA08F72CEA070CC5F820C0C5689D43EB
:10103000C5604568A543456084689C438460521C34
:10104000102A81D3BDE8F08F00300140000002403B
:101050000004024000080240000C02400010024060
:10106000003C01402DE9F84FDFF8B8A1002201242F
:1010700003254FF00F090AF1040BAAF1040E00BF7B
:101080000B6804FA02F63340B34273D10F7907F0CC
:101090000307012F01D0022F16D187684FEA4208BB
:1010A00005FA08FC27EA0C07D1F80CC00CFA08FC7A
:1010B0004CEA070CC0F808C04768B7430E79C6F37E
:1010C000001696403E4346600E79F643B6070DD0B3
:1010D000C768560005FA06FC27EA0C07D1F808C0D5
:1010E0000CFA06FC4CEA070CC0F80CC00E7906F0AE
:1010F0000306022E10D1D60800EB8608D8F820602F
:1011000057074FEAD76C09FA0CF7BE430F6907FA85
:101110000CF73743C8F8207006684FEA420C05FA0E
:101120000CF7BE430F7907F0030707FA0CF73743B4
:1011300007604E6816F4403F6DD03B4E376847F469
:1011400080473760366822F0030706F48046009631
:10115000364E07EB060CDCF8086897073F0F09FAD4
:1011600007F826EA0806DFF8C880404503D14FF0AB
:1011700000081EE04FE0DFF8BC80404502D14FF090
:10118000010816E0DFF8B080404502D14FF00208B8
:101190000FE0DFF8A880404502D14FF0030808E0D7
:1011A000DFF89C80404502D14FF0040801E04FF089
:1011B000070808FA07F848EA0608CCF80888DAF8B9
:1011C00000605746D1F804C09E435FEACC2C00D59E
:1011D0001E433E60DBF800605F46D1F804C09E43CA
:1011E0005FEA8C2C00D51E433E60DEF80060774637
:1011F000D1F804C09E435FEA8C3C00D51E433E609C
:10120000084F083F3E68D1F804C09E435FEACC3CDB
:1012100000D51E433E60521C102AFFF431AFBDE8DA
:10122000F88F0000083C0140443802400030014083
:10123000000002400004024000080240000C02408E
:10124000001002400069084000D0012070470AB138
:10125000816170470904FBE701488068704700001E
:10126000100100207047704710B5040013D02420EF
:1012700084F83D002068016821F0010101602046EA
:1012800000F048FB0020206484F83D0044F8300F53
:10129000A073207310BD012010BD2DE9F04101683D
:1012A00004464A694E6890F83E000025D743FA0587
:1012B00006D4F243D20503D46FF4807201254A614B
:1012C000B90508D4F143C90505D422686FF400714B
:1012D00045F002055161790525D4F143C90522D4B1
:1012E000638D94F83D10226B202808D13BB9212949
:1012F00010D029290ED0282901D1212A0AD022680C
:101300006FF48061516145F00405102806D0402833
:1013100004D008E0204602F0A9F804E02068016843
:1013200041F400710160380508D4F043C00505D4CC
:1013300021686FF4006045F008054861002D07D072
:10134000206C284320642046BDE8F04101F012BD26
:10135000BDE8F0812DE9F047026800215368C66AB4
:1013600090F83E4090F83D50102C12D0402C10D0F8
:10137000046C002C7DD05469E443A6077AD4DE4384
:10138000B60577D4036C03B19169BDE8F04702F06C
:1013900049B8976951694FF42A0CC9435FEAC1788B
:1013A0004FF02A4904D066452AD04E4528D010E097
:1013B000DE43B6050DD4C16A614501D1012103E0C8
:1013C000C16A494501D10821C162BDE8F04701F079
:1013D0008FBF0E0716D4DE43B60513D4416CC9B2D5
:1013E0001161416B09B1C96B29B9816B002907D023
:1013F000C96B002904D00068416841F40061416074
:10140000BDE8F0878E0706D4DE43B60503D4BDE8F9
:10141000F04701F0E1BEFE43526876074FEA025200
:101420001DD4002AECDB0A0608D4DA43520505D4A1
:10143000490705D5BDE8F04701F072BE4907DFD482
:10144000D9438905DCD4212D05D0402CD8D1BDE865
:10145000F04701F093BFBDE8F04701F01FBE002A3E
:10146000CEDB4A060BD4DA43520508D4490708D527
:1014700001E00DE00EE0BDE8F04701F095BD490741
:10148000BED4D9438905BBD4BDE8F04701F01EBDE9
:10149000916970E7E10606D4D943890503D4BDE814
:1014A000F04702F02BB82821212D27D0292D25D057
:1014B000650655D4DD436D0552D4640752D590F8C6
:1014C0003D30448D002C9BD01269446A2270426AE0
:1014D000521C4262428D521E4285428D002A8FD19B
:1014E0002A2B8DD10268536823F480635360222233
:1014F000026380F83D1000F075FA81E7250623D4D9
:10150000DD436D0520D4640720D590F83D30448D2F
:10151000002CF2D0446A24781461426A521C426260
:10152000428D521E4285428D002AE6D1292BE4D1FC
:101530000268536823F4806353602122026380F8B9
:101540003D1000F050FA5BE76107D6D4D943890516
:10155000D3D4418D0029D0D0416A097811610AE0C5
:101560006107CAD4D9438905C7D4418D0029C4D0A5
:101570001169426A1170416A491C4162418D491EDC
:1015800041853DE700680449884203D1034840682B
:1015900004F080BB7047000000540040A001002010
:1015A00070B5040025D094F83D00002520B984F8DA
:1015B0003C50204600F0D0F9242084F83D002068FB
:1015C000016821F0010101602068016841F40041D7
:1015D00001602068016821F40041016000F092FB85
:1015E0004D4A6168914201D84C4900E04C4988421B
:1015F00001D2012070BD4B492368B0FBF1F15E6858
:1016000026F03F060E435E606368934206D94FF4AE
:10161000967359434FF47A73B1FBF3F12368491C75
:101620001E6A26F03F06314319626168914210D864
:101630004900401EB0FBF1F2521CC2F30B02042A17
:1016400001D2042022E0B0FBF1F0401CC0F30B00FB
:101650001CE0A268F2B301EBC10303EB0116431EC9
:10166000B3FBF6F35B1C43F480431B0549D092B3F4
:1016700001EBC10202EB0111401EB0FBF1F0401C76
:10168000C0F30B0040F4804040F400402168CA6978
:101690004CF6FF739A431043C861D4E90710014325
:1016A0002068026822F0C00211430160D4E90301FE
:1016B00001432068826848F2FF339A4311438160F6
:1016C000D4E9050108432168CA6822F0FF021043EB
:1016D000C86001E00EE016E02068016841F00101F9
:1016E00001602564202084F83D00256384F83E5085
:1016F000002070BD01EB4106431EB3FBF6F35B1CFB
:10170000B3E70120C2E701EB4101401EB0FBF1F05D
:10171000401CC0F30B00B7E7A086010080841E00C8
:1017200000093D0040420F007047704770470000BD
:1017300000680449884203D10348406804F0AABA0B
:101740007047000000540040A001002000680449D8
:10175000884203D10348406804F09CBA70470000F7
:1017600000540040A0010020F8B50024DDE9067611
:10177000009490F83D50202D5ED1304D46F2A81CCB
:101780002D68B5FBFCF505EBC50C0CEB05150095BC
:101790006D1E009506D00568AD69ED43AD070BD40D
:1017A000009DF5E740F8304F2021417384730169B3
:1017B00041F0200101613FE090F83C50012D3BD009
:1017C000012580F83C500568D5F800C05FEACC7C64
:1017D00005D1D5F800C04CF0010CC5F800C0056873
:1017E000D5F800C02CF4006CC5F800C0222580F8A4
:1017F0003D50402580F83E50046447624685458D43
:1018000005850F4DC56241648264C3640465016847
:101810000A6842F480620A6001680A6842F48072D1
:101820000A6080F83C40018D21B10068416841F4B4
:10183000E06141600020F8BD0220F8BD1C010020DD
:101840000000FFFFF8B50024DDE90676009490F86B
:101850003D50202D57D12D4D46F2A81C2D68B5FBCB
:10186000FCF505EBC50C0CEB051500956D1E009500
:1018700006D00568AD69ED43AD070BD4009DF5E7D3
:1018800040F8304F202141738473016941F02001F9
:10189000016138E090F83C50012D34D0012580F8EA
:1018A0003C500568D5F800C05FEACC7C05D1D5F87E
:1018B00000C04CF0010CC5F800C00568D5F800C0A8
:1018C0002CF4006CC5F800C0212580F83D5040255F
:1018D00080F83E50046447624685458D05850C4D71
:1018E000C56241648264C364046501680A6842F4A5
:1018F00080720A6080F83C400068416841F4E06111
:1019000041600020F8BD0220F8BD00001C0100204D
:101910000000FFFF10B500680C49884215D10C4843
:10192000016821F4001101600A4C81152046FFF77F
:1019300003FB61152046FFF7FFFA1F2000F0D8F8DF
:10194000BDE81040202000F0D3B810BD0054004086
:10195000403802400004024010B586B0044614210D
:101960006846FEF7DFFC1C492068884231D11B48DD
:10197000016841F0020101600068694600F0020060
:1019800005904FF4407000901220019001200290C9
:1019900002200390042004901148FFF763FB0F48D6
:1019A0001030016841F4001101600068002200F469
:1019B0000010059005211F2000F0B8F81F2000F04E
:1019C000A8F800220521202000F0B0F8202000F027
:1019D000A0F806B010BD00000054004030380240AE
:1019E0000004024070477047024881680278114441
:1019F00081607047100100200B4810B5016841F468
:101A000000710160016841F480610160016841F486
:101A100080710160032000F0A9F80F2000F006F8A3
:101A200000F04AF8002010BD003C024030B50546E9
:101A30001C4887B00024016841F40031016000684F
:101A400006A900F40030009001A800F03BF900F076
:101A500069F91549154AB0FBF1F11548491E0260B4
:101A600040F2E732C0E90324C0E90114846100F0C8
:101A700091FB040012D10E4800F00EFC04000DD1C1
:101A8000192000F046F8102D07D20022294619200F
:101A900000F04CF80748056000E0012407B020463C
:101AA00030BD00004438024040420F000044014075
:101AB00038050020140100200C4882B0016841F470
:101AC00080410160006800F4804000900748001FDA
:101AD000016841F0805101600068002200F08050F0
:101AE00000900F21901E02B000F020B84438024050
:101AF00000280DDB00F01F02012191404009800009
:101B000000F1E020C0F88011BFF34F8FBFF36F8F5B
:101B10007047002809DB00F01F02012191404009B5
:101B2000800000F1E020C0F800117047F0B40E4BC7
:101B30001B680C46C3F30223C3F10705042D00D92B
:101B40000425191D072901D2002300E0DB1E012610
:101B500006FA05F1491E214099409E40761E164026
:101B60003143F0BC02F0EABF0CED00E0064900F0A2
:101B7000070208684FF6FF03184040EA0220034AB4
:101B800010430860704700000CED00E00000FA050B
:101B90002DE9F0470E46050065D0DFF81481D8F82E
:101BA0000000F7B200F00700B04207D288F80070DA
:101BB000D8F8000000F00700B04254D128683D4C2E
:101BC000810712D5400703D5206840F4E05020601B
:101BD0002878000703D5206840F460402060206822
:101BE000A96820F0F000084320602878C0072DD0B5
:101BF000304968680839012812D0022813D0032818
:101C000011D00968890700292DDA216821F0030124
:101C100001432160FFF720FB814641F2883A0EE044
:101C200009688903EFE709688901ECE7FFF714FB0E
:101C3000A0EB0901514502D90320BDE8F0872068D7
:101C4000696800F00C00B0EB810FEFD1D8F80010FC
:101C5000404601F00701B14207D90770006800F063
:101C60000700B04201D00120E7E72878400705D5FA
:101C70002068E96820F4E0500843206028780007D5
:101C800006D52068296920F4604040EAC100206040
:101C900000F058F82168084AC1F30311515CC840AC
:101CA0000649086006480068FFF7C0FE0020C4E748
:101CB000003C0240083802400C7D00081C01002056
:101CC000140100200F2202600C4A136803F0030382
:101CD0004360136803F0F0038360136803F4E05378
:101CE000C36012684FF4E05303EAD2020261044871
:101CF000006800F0070008607047000008380240E4
:101D0000003C02400448054900680968044AC1F3E0
:101D10008221515CC84070471C01002008380240F5
:101D20001C7D00080448054900680968044AC1F39D
:101D30004231515CC84070471C0100200838024005
:101D40001C7D0008154810B5006810F00C021448FE
:101D500013D01449042A0FD0082A0ED10F4C241F87
:101D60002268236802F03F025B0207D52068C0F3B7
:101D70008810A0FB010106E0084610BD2168C1F3F0
:101D80008811A1FB00010023FEF782FA2168C1F34C
:101D90000141491C4900B0FBF1F010BD0838024078
:101DA0000024F40040787D012DE9F84F04006ED046
:101DB0002078DFF84C93C007A9F104054AD009F157
:101DC00004000168C1F38101012908D00068C0F353
:101DD000810002280AD1D9F80000400206D52868FF
:101DE000800337D560680028E1D033E06068B0F543
:101DF000803F10D0B0F5A02F286810D020F480309C
:101E00002860286820F4802028606068A8B1FFF767
:101E100023FA06460DE0286840F48030F4E740F4E9
:101E200080202860F7E700BFFFF716FA801B6428C0
:101E300073D828688003F7D50CE0FFF70DFA064643
:101E400005E000BFFFF708FA801B6428F0D8286877
:101E50008003F7D42078DFF8AC8280074FF0000AC7
:101E60003ED5A748001D016811F00C0F08D000688E
:101E7000C0F3810002280BD1D9F80000400207D43A
:101E80002868800716D5E068012800D112E033E108
:101E9000E068B8B10120C8F80000FFF7DDF9064698
:101EA00005E000BFFFF7D8F9801B0228C0D82868DA
:101EB0008007F7D52868216920F0F80040EAC100C2
:101EC00028600DE0C8F800A0FFF7C6F9064604E058
:101ED000FFF7C2F9801B02281FD828688007F7D4B3
:101EE0002078000722D5864F87486169703771B125
:101EF00001210160FFF7B0F9064604E0FFF7ACF9F5
:101F0000801B022809D838688007F7D50EE0C0F892
:101F100000A0FFF7A1F9064605E082E0FFF79CF973
:101F2000801B02287DD838688007F7D420784007C6
:101F300068D5DFF8CCB100270BF13C0BDBF80000D3
:101F4000C0000BD4DBF8001041F08051CBF800103A
:101F5000DBF80000012700F0805000906B4E3068E5
:101F6000C00510D4306840F480703060FFF774F919
:101F7000009005E0FFF770F90099401A022850D848
:101F80003068C005F6D55E4EA0686C3601280FD0CB
:101F90000528306810D020F001003060306820F053
:101FA00004003060A068B8B1FFF756F900900FE068
:101FB000306840F00100F4E740F004003060F7E7DB
:101FC000FFF74AF90099411A41F28830814266D8F8
:101FD00030688007F4D50EE0FFF73EF9009007E087
:101FE000FFF73AF90099411A41F28830814256D8F8
:101FF00030688007F4D42FB1DBF8001021F0805155
:10200000CBF80010A069C8B33D49091D0968C1F3A8
:10201000810102294AD00228504607D0C8F8600042
:1020200000E03CE0FFF718F904463BE04746C8F8FB
:102030006000FFF711F9064605E000BFFFF70CF955
:10204000801B02282BD828688001F7D4D4E9070127
:102050000843A16A2E4A490802EB0141626A41EA3B
:102060008211084394F82C1040EA0161C9F800106D
:1020700001203866FFF7F0F8044606E03EE000BFB6
:10208000FFF7EAF8001B022809D828688001F7D575
:1020900034E000BFFFF7E0F8001B022802D903205C
:1020A000BDE8F88F28688001F4D427E00128F7D034
:1020B000D9F80000E26900F4800191421CD1226A43
:1020C00000F03F01914217D147F6C071626A0140AA
:1020D000B1EB821F10D1A26A4FF0FF3300F4403100
:1020E00003EB5202B1EB024F06D194F82C1000F032
:1020F0007060B0EB016F01D00120D1E70020CFE785
:102100000438024000004742800E47420070004001
:102110000000FFFF7047704770B590F83C20012A1F
:102120002CD0012480F83C40022280F83D20036836
:102130005A689D6822F070060A6832435A60104B54
:1021400002689A420ED0B2F1804F0BD00D4B9A42EA
:1021500008D00D4B9A4205D00C4B9A4202D00C4B42
:102160009A4204D1496825F080031943916080F8B0
:102170003D40002180F83C10084670BD022070BD33
:10218000000001400004004000080040000C004036
:102190000040014010B5040003D094F83D0010B198
:1021A00007E0012010BD002084F83C00204600F02C
:1021B0001FF8022084F83D00211D206802F024F859
:1021C000012084F8460084F83E0084F83F0084F83B
:1021D000400084F8410084F8420084F8430084F809
:1021E000440084F8450084F83D00002010BD000044
:1021F00008B500680C49884208D10C48016841F0D4
:1022000002010160006800F002000BE0084988420A
:1022100009D10648001D016841F480210160006871
:1022200000F48020009008BD0004004040380240C7
:102230000048014090F83D10012901D0012070476D
:10224000022180F83D1000680E4988420ED0B0F19E
:10225000804F0BD00C49884208D00C49884205D0E9
:102260000B49884202D00B49884204D1816801F0B1
:102270000701062903D0016841F001010160002037
:1022800070470000000001400004004000080040CA
:10229000000C00400040014090F83D10012901D0A1
:1022A00001207047022180F83D100168CA6842F0A1
:1022B0000102CA6000680E4988420ED0B0F1804F1A
:1022C0000BD00C49884208D00B49884205D00B49F5
:1022D000884202D00A49884204D1816801F007018E
:1022E000062903D0016841F0010101600020704718
:1022F000000001400004004000080040000C0040C5
:102300000040014070B5044690F83C0000250128CB
:1023100017D0012684F83C60022084F83D00206834
:10232000826822F0770222F47F4282600868502897
:1023300038D00DDC20284FD005DC90B3102811D107
:102340004AE0022070BD302846D040280AD13BE048
:1023500060282FD070280DD0B0F5805F03D0B0F585
:10236000005F12D0012584F83D60002084F83C0015
:10237000284670BDCB68D1E90121206801F0A1FF9A
:102380002068816841F0770109E0CB68D1E901213B
:10239000206801F096FF2068816841F480418160E7
:1023A000E1E719E0CA684968206802F03FF8502167
:1023B000206806E0CA684968206802F048F8602191
:1023C000206801F088FFCEE7CA684968206802F0FB
:1023D0002DF840212068F4E7226801461046F0E716
:1023E00070472DE9F04104460068C66805694FF062
:1023F0000007A90713D5B10711D5F91E0161012006
:102400002077206880698007204602D0FFF7E8FF28
:1024100004E000F0BBF8204600F04DF9277768078C
:1024200016D5700714D521686FF0040008610220EA
:1024300020772068806910F4407F204602D0FFF7A3
:10244000CFFF04E000F0A2F8204600F034F927772F
:10245000280715D5300713D521686FF008000861EB
:10246000042020772068C0698007204602D0FFF74B
:10247000B7FF04E000F08AF8204600F01CF9277747
:10248000E80616D5F00614D521686FF01000086133
:10249000082020772068C06910F4407F204602D0D1
:1024A000FFF79EFF04E000F071F8204600F003F90A
:1024B0002777E80708D0F00706D021686FF0010001
:1024C0000861204600F050F9280608D5300606D5E8
:1024D00021686FF0800008612046FFF71BFE680648
:1024E00008D5700606D521686FF0400008612046C7
:1024F00000F044F9A8060AD5B00608D521686FF0A7
:10250000200008612046BDE8F041FFF704BEBDE8A9
:10251000F081000030B587B0044614216846FDF70D
:1025200001FF16492068884226D115480024016819
:1025300041F001010160016801F0010105910168AC
:1025400041F0020101600068022500F002000590E0
:10255000C0200090CDE9015469460A48CDE9034501
:10256000FEF780FD03200090CDE90154694606483E
:10257000CDE90345FEF776FD07B030BD000400400D
:10258000303802400000024000040240704770B53D
:10259000044690F83C0000260D4601280FD001208B
:1025A00084F83C006AB1042A1DD0082A2FD00C2AD6
:1025B0003FD00126002084F83C00304670BD022048
:1025C00070BD206801F090FE2068816941F008012B
:1025D00081612068816921F004018161206881693D
:1025E0002A69114311E0206801F0A6FE2068816984
:1025F00041F4006181612068816921F48061816119
:10260000206881692A6941EA02218161D2E7206854
:1026100001F0BEFE2068C16941F00801C161206877
:10262000C16921F00401C1612068C1692A691143AF
:1026300011E0206801F0D8FE2068C16941F4006112
:10264000C1612068C16921F48061C1612068C169EC
:102650002A6941EA0221C161ACE710B5040003D048
:1026600094F83D0010B107E0012010BD002084F86F
:102670003C00204600F01EF8022084F83D00211D99
:10268000206801F0C1FD012084F8460084F83E0076
:1026900084F83F0084F8400084F8410084F8420048
:1026A00084F8430084F8440084F8450084F83D0031
:1026B000002010BD7047704710B50446022249B192
:1026C00004290ED0082913D094F84100012816D00F
:1026D000012010BD94F83E000128F9D184F83E2075
:1026E0000FE094F83F000128F2D184F83F2008E081
:1026F00094F840000128EBD184F8402001E084F8F0
:1027000041200122206801F0CFFD12492068884253
:1027100003D1426C42F400424264206888420ED0E9
:10272000B0F1804F0BD00C49884208D00B49884249
:1027300005D00B49884202D00A49884204D18168F9
:1027400001F00701062903D0016841F00101016091
:10275000002010BD000001400004004000080040BF
:10276000000C00400040014000680349884201D14C
:10277000FFF73AB9704700000044014070477047C6
:1027800010B504460068406994F84110C0F3C010C9
:10279000212911D180B12068143050E8001F21F0A8
:1027A000800140E80012002AF5D1A06B08B1FEF7C5
:1027B000E1F9204601F028FF2068406994F84210B2
:1027C000C0F38010222911D180B12068143050E864
:1027D000001F21F0400140E80012002AF5D1E06B13
:1027E00008B1FEF7C7F9204601F0E7FE002010BD52
:1027F00070470000F8B5016804460868CA684B696C
:1028000010F00F0F4FF0000559D003F0010602F44D
:102810009077374365D0C10705D0D10503D5616CEA
:1028200041F001016164410705D5D90703D0616C0E
:1028300041F002016164810705D5D90703D0616CBD
:1028400041F004016164010707D502F02001314322
:1028500003D0616C41F008016164616C00293AD0D9
:10286000800604D5900602D5204601F0DBFE2068E4
:102870004069616CC0F38010090700D460B3204642
:1028800001F09BFE20684069400621D52068143085
:1028900050E8001F21F0400140E80012002AF5D165
:1028A000E06BA8B172490165E06BFEF7ACF9002856
:1028B00011D0E06B016D01B0BDE8F0400847830620
:1028C0000FD593060DD52046BDE8F84001F0AABE0D
:1028D0002046FFF78DFFF8BD2046FFF789FF6564AE
:1028E000F8BD266B2023012E7ED1C6067CD5D606E8
:1028F0007AD508684868009048694FF0020640069B
:102900004DD5E26B106840684FF480770004000CEE
:102910003AD0A18D814237D9E085D069B8422DD017
:1029200020680C3050E8001F21F4807140E800124C
:10293000002AF5D12068143050E8001F21F0010171
:1029400040E80012002AF5D12068143050E8001F3A
:1029500021F0400140E80012002AF5D184F842300D
:10296000256320680C3050E8001F21F0100140E87A
:102970000012002AF5D1E06BFEF7FCF86663A08D2B
:10298000E18D401A81B206E0A18D8142A8D1D069C3
:10299000B842A5D166632046FFF7F1FEF8BDA08DD1
:1029A000E18D401A81B2E08D0028F7D00029F5D0E2
:1029B00020680C3050E8002F22F4907240E8002785
:1029C000002FF5D12068143050E8002F22F00102CA
:1029D00040E80027002FF5D184F8423025632068B5
:1029E0000C3050E8002F00E006E022F0100240E832
:1029F0000023002BF3D1CDE705062BD5150629D5ED
:102A000094F841002128C9D1A068B0F5805F01D1B8
:102A10002069B0B1206A411C2162216800784860B9
:102A2000E08C401E0004000CE084B7D12068C1682F
:102A300021F08001C1602068C16841F04001C1609F
:102A4000F8BD206A0088C0F308004860206A801C36
:102A50002062E5E74006F3D55006F1D5CA68204666
:102A600022F04002CA6084F8413000F003F9F8BD5A
:102A70007344000870B5040004D094F841000025A8
:102A800010B106E0012070BD84F84050204600F0EF
:102A900023F8242084F841002068C16821F4005103
:102AA000C160204601F020FE2068016921F49041B8
:102AB00001612068416921F02A0141612068C168F3
:102AC00041F40051C1606564202084F8410084F81D
:102AD00042006563002070BD2DE9F04186B00646D6
:102AE00014216846FDF71EFC3349306888425FD1E7
:102AF00032480024016841F010010160006800F0D4
:102B0000100005902D481438016841F00101016062
:102B10000068694600F0010005904FF4C060009025
:102B20000220CDE9010403200390072004902448EB
:102B3000FEF798FA244D23484FF000672860C5E956
:102B400001744FF48068C5E903486C61AC61EC61C5
:102B50002C6228466C62FEF73BF908B1FDF764FF72
:102B6000F563002205212520AE63FEF7DFFF252057
:102B7000FEF7CFFF1348154D7830E5E802074020F7
:102B8000A5E81101114845F81449AC61EC612C62CB
:102B90006C62FEF71DF908B1FDF746FFB563002230
:102BA00005214620AE63FEF7C1FF4620FEF7B1FFC8
:102BB00006B0BDE8F081000000100140443802403A
:102BC000000002404064024078040020D804002045
:102BD00090F84230202B01D00220704721B11AB169
:102BE0000023036301F006BE012070477047704761
:102BF00070B5044690F84100202801D0022070BD35
:102C000001B3FAB12162A284E2840020606421232E
:102C100084F84130A56B144BEB63A56B134B2B640D
:102C2000A56B134BEB64A36B186520681346A56B6B
:102C3000021D2846FEF736F930B1102060642020CE
:102C400084F84100012070BD21686FF040000860E9
:102C50002068143050E8001F41F0800140E8001265
:102C6000002AF5D1002070BD6F450008B14500086D
:102C70008144000800680349884202D102490020CB
:102C80000870704700100140000000207047FEE708
:102C90000148FEF702BB0000B80100200148FEF722
:102CA00059BB0000B801002038B5806B002190F8B6
:102CB0003D202B4B46F2A8141B68B3FBF4F3C3EB87
:102CC000C30303EB830300933BB15B1E00930368D4
:102CD0001B689B0505D5009BF6E7036C43F02003BA
:102CE0000364436B03B1D963836B03B1D963036896
:102CF0001C6824F480641C604185436B03B1196532
:102D0000836B03B1196503681C6824F001041C601F
:102D100090F83D402023602C0BD0282434EA020296
:102D20000FD080F83D3080F83E1000BFFEF72AFC3F
:102D300038BD80F83D3080F83E100164FEF792FA0D
:102D400038BD0268136843F001031360026813681A
:102D500043F480631360016380F83D40E6E70000C0
:102D60001C01002000684169C943090601D4002103
:102D70000161704770B5044690F83D0094F83E102C
:102D8000102901D0402906D1222804D121680A68DF
:102D900022F400620A60282131EA00024FF00005A7
:102DA0004FF0200626D021684968090505D460281F
:102DB00003D084F83D6084F83E5025632068416864
:102DC000090537D5416821F400614160606B90F8D6
:102DD00035203C49012A11D00165606BFDF713FFD6
:102DE00038B32068016821F00101016084F83D607A
:102DF000606B1CE0256384F83D10DFE7A06B016584
:102E0000A06BFDF700FFA0B120684169C9434906E6
:102E100005D40069616A0870606A401C60622068BD
:102E2000016821F00101016084F83D60A06B016D33
:102E3000884710E094F83D10602910D04169C943DB
:102E4000490605D40069616A0870606A401C6062C6
:102E50002046FEF797FB206CC1071CD115E084F8D3
:102E60003D6025644169C943490605D40069616A2A
:102E70000870606A401C60622068016821F00101EE
:102E800001602046FEF7EEF9E5E7810703D441072C
:102E900001D4000704D52068416821F4E061416055
:102EA00094F83D00216C49070BD5282809D1064824
:102EB000E062256384F83D6084F83E502046FEF7CA
:102EC00033FC70BDA92C00080000FFFF10B5C26ADA
:102ED000438D0168042B06D0438D032B08D0438D0E
:102EE000022B1DD012E04A6822F480624A600CE096
:102EF0004B6823F480634B60042A06D0022A04D076
:102F000001680A6822F480620A6001680969426AFD
:102F10001170416A491C4162418D491E418510BDB5
:102F2000012A34D0102A32D0042A34D0022A32D0D6
:102F30000B6843F400730B6001680969436A1970F8
:102F4000416A491C4162438D5B1E438503681B69CE
:102F50000B70416A491C4162418D491E41850168DF
:102F60004B6823F440734B60202180F83D1090F8AB
:102F70003E300021402B80F83E1010D0082A02D0AD
:102F8000202A00D012210163FEF7CFFB10BD0B6891
:102F900023F48063CFE70B6843F48063CBE70163DE
:102FA000FEF7C6FB10BD000038B590F83D10222991
:102FB00010D1C36A418D03290DD901680969426A9C
:102FC0001170416A491C4162418D491E4185418D04
:102FD000032906D038BDC26A022A02D0012906D0D0
:102FE00029B10068416821F48061416038BD2A4AF6
:102FF00046F2A81400211268B2FBF4F202EB82023E
:10300000009202682024009D6D1E009526D0156850
:10301000AD05F8D4156825F480651560026855681B
:1030200025F4E065556002681269456A2A70426AB3
:10303000521C4262428D521E428580F83D4090F8FB
:103040003E2080F83E10402A21D0082B02D0202BB1
:1030500000D012210163FEF768FB38BD036C43F01A
:1030600020030364536823F4E06353600268126929
:10307000436A1A70426A521C4262428D521E428555
:1030800080F83D4080F83E10FEF77CFA38BD0163C1
:10309000FEF74EFB38BD00001C01002010B5C26ACF
:1030A00090F83D1021290BD1418D51B1416A026840
:1030B00009781161416A491C4162418D491E41856F
:1030C00010BD20230021082A13D0202A11D012F588
:1030D000803F0ED00268546824F4E06454601122EA
:1030E000026380F83E1080F83D3000BFFEF71EFB03
:1030F00010BD0268546824F4E064546002681468E7
:1031000044F400741460016380F83D3090F83E2070
:1031100080F83E10402AE9D1FEF718FB10BD0000F0
:1031200010B590F83D1090F83E30C26A048DB4B1ED
:10313000212903D0402B11D122290FD1418DE1B398
:1031400090F83E10402942D0416A02680978116126
:10315000416A491C4162418D491E418510BD2129AA
:10316000E8D120230021082A13D0202A11D012F5FB
:10317000803F0ED00268546824F4E0645460112249
:10318000026380F83E1080F83D3000BFFEF7CEFAB3
:1031900010BD0268546824F4E06454600268146846
:1031A00044F400741460016380F83D3090F83E20D0
:1031B00080F83E10402AE9D100E002E0FEF7C6FAAE
:1031C00010BD0068416821F48061416010BDBDE818
:1031D000104000F0D3B8000078B590F83E50C26AB5
:1031E000036B90F83D6000240168222E7AD1066DB1
:1031F0000EB9402D76D0056D1DB90569B5F5404F66
:1032000009D0458D05B3468D384D012E0ED0438D26
:10321000022B3AD05DE04A698A6900920A6842F45A
:1032200080720A60016D491C016578BDAA4213D104
:103230000A6822F480620A6001684A68120503D5B0
:103240000A6822F4806216E04A698A6900920A6874
:1032500042F400720A6039E0082A10D0202A0ED009
:10326000122B0AD0042A03D0022A01D0102AE7D157
:103270000A6842F480620A6024E0012AE0D00A6809
:1032800022F480620A600168DEE7042A21D0022A63
:103290001FD0102A1DD00B6823F480630B600168D7
:1032A0000B6843F400630B6001684B681B0509D58C
:1032B000AA4212D0012A10D0082A0ED0102A0CD00F
:1032C000202A0AD001684A6989690091046578BD9D
:1032D00008E00B6843F48063E5E74A6842F48052F3
:1032E0004A60EFE7486988690090F0E70000FFFF57
:1032F00090F83E10402910D00169B1F5804F19D0E7
:10330000016DA9B3016D012910D1416C5FF0F1028B
:1033100001F4407142EAD11106E0016D0029416CCF
:1033200005D0C9B241F0010100680161704701F0A8
:10333000FE01F9E790F83D102129416C09D0C9B28E
:1033400041F0010102681161416B29B1C96B49B9B2
:1033500002E001F0FE01F5E7816B0029E6D0C96BC0
:103360000029E3D00068416841F400614160704782
:10337000FFE7416CF02201F44071CBE710B590F803
:103380003D10026D4AB1026D012A14D0026D022A6D
:1033900016D0BDE81040FFF7E5BCC16C0129816C77
:1033A00002D0C1F3072108E00268C9B21161016DC2
:1033B000891C016510BD816CC9B20268116123E0EE
:1033C00022291CD0428D0AB1212920D0428D002A09
:1033D000F0D12129EED101684A6822F4E0624A6006
:1033E00001680A6842F400720A6000210163202229
:1033F00080F83D2080F83E10FEF7A8F910BD016866
:103400000A6842F480720A60016D491CD1E7416A82
:10341000026809781161416A491C4162418D491E67
:10342000418510BD38B50C4690F83D200021282577
:10343000954302680B4605D051699169009180F867
:103440003C3038BD556825F480655560E24354072B
:1034500000D50121120601D5828900E0028B80F897
:103460003C3092B2FDF7FFFE38BD00002DE9F0417F
:1034700090F83D300446C26A002120261E4F0068A5
:103480006FF48065082A01D0202A01D1282B04D0AE
:10349000212B17D04561BDE8F081E762426822F434
:1034A000E0624260206845612068026822F4806220
:1034B0000260216384F83D6084F83E102046FEF7E8
:1034C00033F9E8E7E7622122226384F83D6084F85B
:1034D0003E10416821F4E061416020684561206848
:1034E000016821F4806101602046FFF73BFC204623
:1034F000FEF779FACFE700000000FFFFF8B590F87B
:103500003D6004460068416821F4E0614160206844
:10351000002541690091016841F0010101602068C6
:10352000016821F48061016020684168090520D5A7
:10353000474F222E48D02A2E46D0616B0968496831
:103540006185618D19B1216C41F0040121644168EC
:1035500021F400614160606BFDF767FB012808D032
:10356000606B0765606BFDF74EFB10B1606B016D22
:103570008847608D08B320684169C943490708D46A
:103580000069616A0870606A401C6062608D401E5C
:10359000608520684169C943490608D40069616AA9
:1035A0000870606A401C6062608D401E6085608D9E
:1035B00018B1206C40F004002064206C00B3204659
:1035C000BDE8F840FFF7D6BBA16B09684968618583
:1035D000618D19B1216C41F004012164416821F42D
:1035E00000614160A06BFDF720FB0128C1D0A06BFA
:1035F0000765A06BFDF707FB0028BAD0A06BB6E704
:103600002A2E06D12563282084F83D002046FEF7A7
:10361000E9F994F83D10202028290DD0216B2229AA
:1036200001D0222E07D1256384F83D0084F83E5056
:103630002046FEF7D7F9F8BD0649E162256384F814
:103640003D0084F83E502046FEF76EF8F8BD0000BD
:10365000A92C00080000FFFF0E4910B500230A68DE
:10366000642801DD642007E06FF06304A04201DA02
:10367000204604E0002801DD506307E005DA5363CB
:103680000968C0F10000886310BD53630868836354
:1036900010BD00000C0200202DE9F043D34C05467C
:1036A0008BB0606828B900221146012002F0A6FA0A
:1036B00060602078A046002871D1FF2003278DF894
:1036C000100081465FF0010404A8CDE900048DF8E4
:1036D000109001237522D021C548FEF745F8060059
:1036E00003D1642001F0A2FF064602463B469DF846
:1036F0001010C0A001F030FF1EB99DF8100068281E
:103700000CD01420FDF706FC7F1E17F0FF07DBD15D
:10371000002E22D19DF810006828FAD14FF0000940
:103720008DF824904F4609AECDE9006401236B2249
:10373000D021AF48FEF786F8010004D1642001F0E3
:1037400075FF01000AD0B8A001F006FF0A20FDF7BE
:10375000E1FB7F1CFFB2032FE5D39CE03220FDF795
:10376000D9FB08208DF824000027CDE9006401234F
:103770001B22D0219E48FEF765F8010004D1642089
:1037800001F054FF01000BD0B0A001F0E5FE0A20CB
:10379000FDF7C0FB7F1CFFB2032FE6D37BE05DE0AB
:1037A0008DF824900027CDE9006401231C22D0214C
:1037B0008F48FEF747F8010004D1642001F036FF7E
:1037C00001000AD0AAA001F0C7FE0A20FDF7A2FB63
:1037D0007F1CFFB2032FE6D35DE063208DF8240049
:1037E0000027CDE9006401231922D0218048FEF78B
:1037F00029F8010004D1642001F018FF01000AD06B
:10380000A4A001F0A9FE0A20FDF784FB7F1CFFB2F3
:10381000032FE6D33FE006208DF824000027CDE9F2
:10382000006401231A22D0217148FEF70BF8010031
:1038300004D1642001F0FAFE01000AD09EA001F03C
:103840008BFE0A20FDF766FB7F1CFFB2032FE6D339
:1038500021E088F80040A0A001F07EFE032405AE20
:103860000E2701233B22D0216148CDE90067FDF7F7
:103870007BFF010004D1642001F0D8FE01000ED0CE
:10388000621EA3A001F068FE0A20FDF743FB641E40
:1038900014F0FF04E5D100200BB0BDE8F083BDF8C3
:1038A0001400BDF81C2040BA04B2BDF8160052BA8C
:1038B00040BA01B213B2BDF81800BDF81E20BDF821
:1038C000206040BA2C8000EE104A00B2698052BAE3
:1038D000A88012B276BAEB80F8EEC00A36B22A811E
:1038E0006E819FED960A20EE801A00EE901AF8EE97
:1038F000E00A60EE801A00EE900A98F80100F8EEF7
:10390000E00A20EE802A00EE103ADFED8D0AB8EED4
:10391000C00AC0EE202A00EE102A8A4AB8EEC00A79
:1039200002EB800383ED001AC3ED051A83ED0A2A2A
:1039300002F13C0303EB8004401C80EE203A00EED1
:10394000106AC4ED002AF8EEC03A83EEA00A84EDB6
:10395000053A84ED0A0A0524B0FBF4F604FB1600D0
:1039600088F801000020DFED781AB1EE041A00BFDC
:10397000F0EE610A00EB800602EB8604B0EE600A0E
:10398000002103EB860600BF04EB810797ED002AB8
:1039900006EB8107491C72EE200A97ED002A0529E3
:1039A00032EE000AF0DB70B180EE812A012814D0DB
:1039B000401C0328C0EE010A85ED052AC5ED080A62
:1039C000D6DB012068E780EE812A0120C0EE010AE3
:1039D00085ED032AC5ED060ACAE7C0EE010A85EDAA
:1039E000042A0220C5ED070AC2E70000A00100205A
:1039F000B80100205B4D50555D2057484F5F414D49
:103A00005F493D3078253032582C204932435F726F
:103A100065743D256420287265747279206C656632
:103A2000743D2564290D0A005B4D50555D205057AB
:103A3000525F4D474D545F3120777269746520663F
:103A400061696C3A2025640D0A0000005B4D5055F9
:103A50005D204759524F5F434F4E4649472077728A
:103A6000697465206661696C3A2025640D0A00005E
:103A70005B4D50555D20414343454C5F434F4E469F
:103A80004947207772697465206661696C3A202520
:103A9000640D0A005B4D50555D20534D504C5254FF
:103AA0005F444956207772697465206661696C3A93
:103AB0002025640D0A0000005B4D50555D20434FEA
:103AC0004E464947207772697465206661696C3A91
:103AD0002025640D0A0000005B4D50555D20496EA5
:103AE0006974204F4B2C20726174653D3130304831
:103AF0007A2C206779726F3DC2B1353030647073B3
:103B00002C20616363656C3DC2B132670D0A000011
:103B10005B4D50555D204461746120726561642085
:103B20006661696C3A202564202872657472792078
:103B30006C6566743D2564290D0A0000000080381C
:103B4000000083424C600020000000002DE9F0419D
:103B500086B014216846FCF7E5FB2B480024016879
:103B600041F004010160016801F004010591016860
:103B700041F080010160016801F080010591016858
:103B800041F001010160016801F001010591016846
:103B900041F00201016000681C4F00F00200059036
:103BA000002207213846FDF752FBDFF8648000222F
:103BB00080214046FDF74BFB072001250226CDE979
:103BC0000005CDE9024669463846FDF74BFA082064
:103BD000CDE90004694638460294FDF743FA4020D7
:103BE000CDE90004694640460294FDF73BFA802087
:103BF000CDE90005CDE9024669464046FDF732FAB7
:103C000006B0BDE8F08100003038024000000240FC
:103C10000004024010B58EB0002407940894099463
:103C20000A940B941C2168460C94FCF77BFB2A48F1
:103C30002849016042F20F71C0E901146321C0E913
:103C400003148461FEF7A6FA08B172B6FEE74FF4DA
:103C50008050079007A92048FEF754FB08B172B6C0
:103C6000FEE71D48FEF7F9FC08B172B6FEE70B94BB
:103C70000BA919480C94FEF74FFA08B172B6FEE78B
:103C80006020CDE9000402940022694612480494A1
:103C9000FEF77DFC08B172B6FEE7042269460E48C5
:103CA000FEF775FC08B172B6FEE7082269460A48BD
:103CB000FEF76DFC08B172B6FEE70C2269460648B5
:103CC000FEF765FC08B172B6FEE70348FEF722FC7A
:103CD0000EB010BD000400400C020020FEE7FEE71D
:103CE0000F4910B500230A68642801DD642007E04D
:103CF0006FF06304A04201DA204606E0002803DDED
:103D000010640868C36310BD05DA13640968C0F164
:103D10000000C86310BDD3630868036410BD0000D1
:103D20000C020020124D134C2DED028B6078D0B99F
:103D300001F088FBB0EE408A0FA0BDEEC80A10EE7D
:103D4000101A01F009FC18EE100AA8420BDA0A203A
:103D500001F0DAFD01F076FB10EE100AA84202DA5B
:103D6000A06F01F097FF3C2001F0CEFDDEE70000E0
:103D700000007041000000206368616F7368656E29
:103D8000626F3D253034645D0000000008B5344C9E
:103D90006078002860D103F045FE002300901A46A9
:103DA0006946606C01F04AFE002001F0F7FBA0704C
:103DB0002B4900231A46891C606D01F03FFE01204B
:103DC00001F0ECFBE070264900231A46C91CA06DE7
:103DD00001F034FE022001F0E1FB207120490023B4
:103DE0001A46091DE06D01F029FE032001F0D6FB03
:103DF00060711B4900231A46491D206E01F01EFE0A
:103E0000042001F0CBFBA071154900231A46891D3F
:103E1000606E01F013FE052001F0C0FBE071104957
:103E200000231A46C91DA06E01F008FE062001F00D
:103E3000B5FB20720A4900231A460831E06E01F0F2
:103E4000FDFD072001F0AAFB6072054900231A4618
:103E50000931206F01F0F2FD052001F055FD97E7D3
:103E6000000000200D4C00256421606F01F01AFE57
:103E700080B9A07C01280AD1A57414210848FCF758
:103E800051FA07491422A1F5E470FEF7A1FE606F14
:103E900001F065FE322001F037FDE5E7000000206B
:103EA00064040020144C86B0607808BB637C227CDC
:103EB000E17BA07B0DF1040C8CE80F00607B00908F
:103EC000237BE27AA17A0D4801F046FBB4F9203059
:103ED000B4F91E20B4F91C1009A001F03DFBB4F99F
:103EE0002030B4F91E20B4F91C10094801F034FB4D
:103EF000012001F009FDD7E700000020507D0008F7
:103F00005B706C6F742C25642C25642C25645D001B
:103F1000E87D000801250E4C00266421606F01F049
:103F2000C1FD80B90BA10C48FCF70EFA28B10BA11A
:103F30000948FCF709FA10B102E0657000E066700C
:103F4000606F01F00CFE322001F0DEFCE5E70000BE
:103F5000000000206B616900640400206775616ED9
:103F600000000000284C8AB04FF4FA556078E8BB96
:103F70006846FFF791FBBDF8020020832249002329
:103F80001A461831E06C01F059FDBDF80000E082DE
:103F90001D4900231A461631A06C01F04FFDBDF8F3
:103FA0000A006083184900231A461A31206D01F077
:103FB00045FDBDF9020000F57A60A8421FD90A202C
:103FC00001F0A2FC6846FFF767FBBDF9020000F5AF
:103FD0007A60A84213D96846FFF75EFBBDF902007C
:103FE00000F57A60A8420AD9002100E007E00846FF
:103FF000FCF711FD642001F087FC00F013FD0A209E
:1040000001F082FCB2E7000000000020224D6FF0BA
:104010006304687801282AD1811E686F01F042FD8F
:1040200028BB1EA11F48FCF78FF920B31EA11D4815
:10403000FCF78AF908B31DA11A48FCF785F9F8B115
:104040001DA11848FCF780F9E8B11EA11548FCF73E
:104050007BF9D8B11DA11348FCF776F9C8B100214E
:104060004FEA0100FCF7D7FC686F01F078FD3220C1
:1040700001F04AFCCDE7642106E020462146F1E745
:1040800064212046EEE721466420EBE764213220DC
:10409000E8E73221F8E70000000000207169616E56
:1040A0000000000064040020686F75007A756F7A64
:1040B0006875616E00000000796F757A6875616ED1
:1040C000000000007A756F7969000000796F7579DA
:1040D000690000002DED028B4FF4FA759FED108AF8
:1040E000104C6078C0B90021A06F01F059FD40B1BB
:1040F0000C4900231A467C31606C01F041FC40B150
:104100000AE0B0EE480A00F0E5FB284601F0FCFBAF
:1041100002E0E06F03F06CFC0F2001F0F5FBE0E73C
:10412000000034430000002010B54FF0E02000698B
:1041300003F06CFA012803D0BDE8104002F088BDFE
:1041400010BD000030B593B030216846FCF7EAF8A6
:1041500014210CA8FCF7E6F81C480025016841F082
:1041600080510160006800F080501190184801688B
:1041700041F4404101600068022400F44040119085
:1041800001200090000401908001CDE90640192033
:104190000890C820CDE9090404200B906846FDF77B
:1041A00003FE08B172B6FEE70CA90F2081E83100CA
:1041B0004FF48050CDE90F0503210CA8FDF7E8FC72
:1041C000002801D072B6FEE713B030BD403802407F
:1041D000007000400248016841F4700101607047BE
:1041E00088ED00E0044900220B685A6209684A6AB7
:1041F0008242FCD370470000540200200148FEF7C1
:10420000F0B8000038050020F0B502681F4B204CC4
:10421000204D214E4FF0804C984207D0604505D08C
:10422000A04203D0A84201D0B04203D122F07007CF
:104230004A683A43984210D060450ED0A0420CD054
:10424000A8420AD0B04208D0144CA04205D0144C69
:10425000A04202D0134CA04203D122F44074CA6899
:1042600022434C6922F0800222438C68C4620C68AD
:104270008462984201D109690163016841F0040137
:104280000160012141610260F0BD000000000140B9
:104290000004004000080040000C004000400140C5
:1042A000004401400048014010B501F01F03012106
:1042B000046A99408C430462016A9A401143016286
:1042C00010BD10B5846842EA032224F47F440A43F7
:1042D0002243826010BD826822F070020A4342F0DD
:1042E000070181607047000030B5036A026A22F05E
:1042F000010202624268846924F073050C682C4351
:1043000023F002058B682B430A4DA8420BD123F002
:104310000805CB6822F440722B434D6923F0040357
:1043200015438A692A434260846149684163036294
:1043300030BD00000000014030B5026A036A23F07E
:1043400010030362436884690D6824F4E64444EA78
:1043500005248D6822F0200242EA05120B4DA84286
:104360000ED1CD6822F0800242EA05124D6923F495
:10437000406343EA85038D6922F0400243EA8503E6
:104380004360846149688163026230BD000001407E
:1043900030B5036A026A22F4807202624268C4691C
:1043A00023F4007324F073050C682C438D6843EAF2
:1043B00005230C4DA8420ED1CD6823F4006343EAD7
:1043C00005234D6922F4405242EA05128D6923F417
:1043D000806342EA05124260C4614968C1630362B6
:1043E00030BD00000000014030B5046A026A22F4CA
:1043F000805202624268C3690D6823F4E64343EACF
:1044000005238D6824F4005444EA0534064DA8427F
:1044100004D14D6922F4804242EA85124260C361B0
:1044200049680164046230BD0000014010B5036AB0
:10443000046A24F001040462846924F0F00444EA6C
:10444000021423F00A020A438461026210BD10B50F
:10445000036A046A24F010040462846923F0A00350
:1044600024F4704444EA023243EA01118261016299
:1044700010BD10B5806B0021C185FEF7B9F910BDE4
:1044800070B5846B2068406994F84110C0F3C01087
:104490000025212904D118B1E584204600F0B4F8A4
:1044A0002068406994F84210C0F38010222904D19A
:1044B00018B1E585204600F080F8606C40F01000EF
:1044C00060642046FEF794F970BD10B50146806B1C
:1044D000096809684FF00002C9052ED4C285016839
:1044E0000C3151E8003F23F4807341E80034002C84
:1044F000F5D10168143151E8003F23F0010341E890
:104500000034002CF5D10168143151E8003F23F04C
:10451000400341E80034002CF5D1202180F84210FE
:10452000016B012909D101680C3151E8003F23F0EA
:10453000100341E80034002CF5D14263016B0129DE
:1045400002D0FEF753FB10BD818DFEF718F910BDA8
:1045500010B5806B01214163016B012902D0FEF788
:1045600046FB10BD818D4908FEF709F910BD10B555
:104570000146806B09680968C90516D40021C18409
:104580000168143151E8002F22F0800241E8002335
:10459000002BF5D101680C3151E8002F42F04002A8
:1045A00041E80023002BF5D110BDFEF763FB10BDE1
:1045B00010B5806BFEF76AFB10BD01680C3151E845
:1045C000002F22F4907241E80023002BF5D10168FE
:1045D000143151E8002F22F0010241E80023002BA2
:1045E000F5D1016B012909D101680C3151E8002F87
:1045F00022F0100241E80023002BF5D1202180F8A1
:10460000421000210163704701680C3151E8002F0E
:1046100022F0C00241E80023002BF5D1202180F8D0
:104620004110704708B590F84210222901D00220AD
:1046300008BD82684FF480539A4201D1016921B1CB
:10464000816A9A421BD04AB10AE00268816A5268C4
:10465000C2F308020A80816A891C08E0026972B10B
:104660000268526802F07F020A70816A491C816206
:10467000C18D491E0904090CC18503D01BE00268E5
:104680005268F1E70168CA6822F02002CA60016836
:10469000CA6822F48072CA6001684A6922F0010285
:1046A0004A61202180F8421000214163026B012AF7
:1046B00003D0FEF79BFA002008BD016301680C31AE
:1046C00051E8002F22F0100241E80023002BF5D121
:1046D00001680A68D20602D50A6849680091818D8E
:1046E000FEF74DF8E7E7000070B504460068016981
:1046F000E26821F44051114301612169A068E26937
:1047000008436169114308432168CA6849F20C6390
:104710009A430243CA6020684169A26921F440714A
:104720001143416131492068884202D030498842B2
:1047300002D1FDF7F7FA01E0FDF7E4FAE2690023A0
:10474000192164253226B2F5004F626828D0A0FBFB
:104750000101930F9200FBF79BFD0146B0FBF5F0C2
:104760006FF01802504301EB800006EB0010B0FB25
:10477000F5F000F0F002B1FBF5F002EB0012B1FB36
:10478000F5F06FF01803584301EB800006EB0010C2
:10479000B0FBF5F000F00F0021681044886070BD98
:1047A000A0FB010192185B41FBF772FD0146B0FBD3
:1047B000F5F00201B1FBF5F06FF01803584301EB7F
:1047C000800006EBC000B0FBF5F000F0F80002EB53
:1047D0004002B1FBF5F0584301EB800006EBC0004E
:1047E000B0FBF5F000F00700D6E700000010014034
:1047F0000014014038B581620446828500201346CA
:104800006064222284F84220E56B1F4AEA63E56B6C
:104810001E4A2A64E56B1E4AEA64E26B10650A468A
:104820002168E06B091DFCF73DFB30B1102060648E
:10483000202084F84200012038BD206801684068CB
:104840000090206948B120680C3050E8001F41F406
:10485000807140E80012002AF5D12068143050E839
:10486000001F41F0010140E80012002AF5D1206844
:10487000143050E8001F41F0400140E80012002AC7
:10488000F5D1002038BD0000CB4400085145000898
:104890008144000838B50B48FDF7ACFF09480068B3
:1048A0000168C943C9060BD4016800244068064961
:1048B0000090012008700348FDF762FF0348C474AC
:1048C00038BD00009C02002012000020640400207B
:1048D000FEE700002DE9F0412DED0A8BB0EE40AA75
:1048E0009FED458A5FF00004B0EE489AFCF79EF811
:1048F00030EE099A142001F007F8641C0A2CF5DB4D
:10490000B2EE040A404DC9EE00AA9FED3CCADFEDAD
:104910003CBA9FED3CBAF0EE488A3C4EDFED3CCA13
:104920002F033C4CDFED3C9ADFF8F0809FED3C9A82
:10493000FCF77CF870EE6A0A10EE900AA84201DDDE
:1049400070EEEC0A10EE900AB04201D970EEAC0A9B
:104950003AEE601AB0EEC10A10EE100AB84207DA59
:10496000BDEC0A8B00210846BDE8F041FCF753B8C6
:1049700038EE018A18EE100AA04202DDB0EE698A14
:1049800005E018EE100A404501D9B0EE498A6CEEF8
:10499000010A31EE680A4BEE880A4BEE000A10EE6F
:1049A000900AA04202DDF0EE690A05E010EE900ADE
:1049B000404501D9F0EE490AB5EEC01AF1EE10FA01
:1049C00008D2BDEEE00A10EE101AB1EE600ABDEE9C
:1049D000C00A07E0B1EE600ABDEEC00A10EE101A80
:1049E000BDEEE00A10EE100AFCF715F8F0EE418A71
:1049F000142000F089FF9BE700000000CDCC4C3F65
:104A00000AD7233CCDCCCC3D00003443000034C356
:104A10000000B4430000C8420000C8420000C8C201
:104A20000000C8C2F0B55FF000042DED048B89B022
:104A30009FED328AF0EE488AFBF7F8FF70EE288A85
:104A4000142000F061FF641C0A2CF5DBB2EE040AAE
:104A50003C2488EE809ADFED2A8AFBF7E7FF294D98
:104A6000DFED299A294E4FF4FA6700BFFBF7DEFF0E
:104A700030EE490A10EE100AA84201DD30EE690A54
:104A800010EE100AB04201D930EE290A00EE904A29
:104A900038EE400AF8EEE00A40EE680AFDEEE00A61
:104AA00010EE901A00EE904AF8EEE00A40EE280A66
:104AB000BDEEE00A10EE100AFBF7ADFF6846FEF708
:104AC000EBFDBDF90200B842D0DA0A2000F01CFF6D
:104AD0006846FEF7E1FDBDF90200B842C6DA0A20D9
:104AE00000F012FF6846FEF7D7FDBDF90200B8429C
:104AF000BCDA09B0BDEC048BF0BD00000000000082
:104B0000CDCC4C3F000034430000B443000034C31C
:104B10007CB5044600201D46164600290BD0491ED0
:104B2000CDE90041044B6A462946304600F0E8F8DA
:104B3000009A002111707CBD2F5400080907090E4E
:104B4000002804DB00F1E02080F80014704700F03A
:104B50000F0000F1E02080F8141D704702E008C843
:104B6000121F08C1002AFAD170477047002001E0E7
:104B700001C1121F002AFBD1704700002DE9FF5F21
:104B800082B00021DDE90430020DDDF840B00343BE
:104B900018D044F61050A2F2FF3242431514119877
:104BA00001281FD0A5EB0B00401C5FEA000A4FF064
:104BB00000064E4FDFF83891B046504615D5CAF181
:104BC000000413E0119801244AA3012801D16FEADF
:104BD0000B010298119AC0E90031C0E9024206B007
:104BE000BDE8F09FCBF10000DFE704460021404A1A
:104BF000491842EB0450CDE9001012E0E00707D05D
:104C000032463B4640464946FBF7ACFB8046894668
:104C100032463B4610461946FBF7A4FB06460F46B4
:104C20006410002CEAD1DDE90401DDE90023BAF1CA
:104C3000000F06DAFBF796FB42464B46FBF792FB6A
:104C400005E0FBF79AFD42464B46FBF796FD04460E
:104C50000E460022284BFBF717FE03D84FF0FF301B
:104C6000014607E00022254B20463146FBF7DEFCDB
:104C7000FBF7F2FD102409E0002C0ADB0A220023D6
:104C8000FBF706FB039B30321A55641E50EA010203
:104C9000F2D1641C039AC4F111031444119A012A3D
:104CA00003D0012208430DD10AE0084304D00020BC
:104CB0004FF0110B119072E7A3EB0B056D1E0DE089
:104CC0005B4504DD4FF0000205F1010504E003DA65
:104CD0004FF00002A5F10105002AECD002981199CD
:104CE000C0E90231C0E9004579E700000000144046
:104CF0000000F03F300000000000F0430000E03F03
:104D00002DE9FF4F95B09B468946064600250FE2E8
:104D1000252877D100242746F84A0121059400E090
:104D2000044316F8013F203B01FA03F01042F7D18B
:104D300030782A2811D06FF02F033078A0F130029C
:104D4000092A16D8059A44F0020402EB820203EB0A
:104D500042021044761C0590EFE759F8042B0592A7
:104D6000002A03DA504244F40054059044F002044F
:104D7000761C30782E2816D116F8010F44F0040462
:104D80002A280DD06FF02F023078A0F13003092BC4
:104D900009D807EB870302EB4303C718761CF3E738
:104DA00059F8047B761C30786C280FD006DC4C2830
:104DB00017D068280DD06A2814D104E0742810D0C8
:104DC0007A280FD10DE044F400140AE044F4801472
:104DD00001E044F440147278824202D104F5801458
:104DE000761C761C307866280BD013DC582877D0D8
:104DF00009DC002875D04528F6D04628F4D047288D
:104E00001AD19DE118E0632835D0642879D065284F
:104E100012D195E1702873D008DC6728F1D0692899
:104E20006FD06E280DD06F2806D1B5E073282CD036
:104E3000752875D0782874D05A46179990476D1CFC
:104E400075E1C4F30250022809D003280DD0D9F827
:104E5000001004280DD00D6009F1040967E1D9F8AC
:104E60000010EA17C1E90052F6E7D9F800100D80EA
:104E7000F2E70D70F0E719F8041B8DF80010002020
:104E80008DF80100EA46012003E059F804AB4FF029
:104E9000FF3061074FF0000102D40DE008F101017D
:104EA0008846B9420FDA8045F8DB1AF80810002965
:104EB000F4D108E008F1010188468142FADB1AF8D2
:104EC00008100029F6D105985B46A0EB080721469B
:104ED0003846179A00F094FA284400EB080507E0DA
:104EE0004DE029E10DE01AF8010B5A461799904759
:104EF000B8F10108F7D25B4621463846179A13E10C
:104F000042E00A220092C4F302524FF0000A022A41
:104F100008D059F804CB032A4FEAEC710AD00DE00F
:104F200029E02AE009F1070121F00702F2E802C1B5
:104F3000914609E00FFA8CFC4FEAEC71042A03D188
:104F40004FFA8CFC4FEAEC71002907DA0A4600217F
:104F5000DCF1000C61EB02012D2202E0220504D5F8
:104F60002B228DF80420012203E0E20701D0202249
:104F7000F7E7904659E00A2102E010220DE01021E7
:104F80004FF0000A00910BE010224FF0000A44F0AD
:104F900004040827009203E008224FF0000A009260
:104FA000C4F30252022A05D059F804CB0021032A87
:104FB00008D009E009F1070121F00702F2E802C177
:104FC000914605E01FFA8CFC042A01D10CF0FF0C7D
:104FD0004FF00008220728D5702806D0009B83F0E8
:104FE000100353EA0A0305D00EE040228DF8042096
:104FF000012208E05CEA010206D030228DF804208C
:105000008DF8050002229046009B83F0080353EAC6
:105010000A030AD15CEA010201D1620705D53022F8
:105020008DF804204FF001087F1E582804D034A0CA
:1050300003900EA802900DE036A0F9E753466046B3
:10504000009AFBF725F984460398825C0298401E7B
:10505000029002705CEA0100F0D1029806A9081AD9
:1050600000F1200A600702D524F4803400E0012713
:10507000574502DDA7EB0A0000E0002000EB0A0123
:10508000009005984144401A0590E00306D45B4621
:105090002146179A059800F0B3F90544002706E069
:1050A00001A85A46C05D179990476D1C7F1C474563
:1050B000F6DBE0030CD55B462146179A059800F015
:1050C0009FF9054404E030205A46179990476D1C1B
:1050D0000099481E00900029F5DC08E0029802992A
:1050E0005A460078491C0291179990476D1CBAF1F5
:1050F0000001AAF1010AF1DC65E1000009280100C4
:10510000303132333435363738396162636465663D
:1051100000000000303132333435363738394142FF
:10512000434445460000000000F058F90544761C51
:10513000307800287FF4ECAD19B02846BDE8F08F38
:10514000620700D4062709F1070222F0070CFCE8E9
:105150000223E14603F000485FEA080C02D00FF298
:10516000702C0DE05FEA045C02D50FF2682C07E0BA
:105170005FEAC47C02D00FF2602C01E0AFF2700C49
:105180004FF0FF3823F00043CDF850C065280CD015
:1051900006DC452809D046281DD047283DD13DE0F2
:1051A000662818D067287ED138E00021112F01DB56
:1051B000112000E0781CCDE9000106A90EA8FFF738
:1051C000DDFCDDE90F010E9A03910021009207F149
:1051D000010A04914DE04FF000400097CDE9011025
:1051E00006A90EA8FFF7CAFCDDE90F0203920E9B89
:1051F00011990022DDF80CA00093049211B9791CDA
:1052000000EB010AB7EB0A0004D4C0F1FF3007F14C
:10521000010A0490AAEB0700019044E0012F00DA94
:1052200001270021112F01DD112000E03846CDE9D2
:10523000000106A90EA8FFF7A1FCDDE90F010E9AF7
:105240000391002104910092BA4621070CD40399DE
:10525000514500DA8A46BAF1010F05DD009AAAF13C
:105260000101515C302908D0B84202DA10F1040F74
:1052700006DA0121CDE9011015E0AAF10101E9E703
:10528000002805DC049901440491AAEB000102E026
:10529000411C514500DD8A460499401A401C01908A
:1052A0004FF000400290200704D40198504501DBE4
:1052B000CDF8048000208DF84F0002980DF14F07C3
:1052C000B0F1004F25D02B200E9002984FF002082D
:1052D00000280CDA404202902D200E9007E00A21AF
:1052E0000298FBF7DAF83031029007F8011DB8F1A7
:1052F0000001A8F10108F2DC02980028EFD1791E24
:105300000E980870307800F0200040F0450007F853
:10531000020D12A8C01B00F107081498007800B114
:10532000012000EB0A01019801EBE071059841446E
:10533000401A401E0590E00306D45B462146179AAA
:10534000059800F05DF805441498007818B15A46A5
:10535000179990476D1CE00324D55B462146179AA8
:10536000059800F04DF805441CE00498002807DB80
:10537000DDE90301884203DD0098405C179901E0F4
:10538000179930205A469047049805F10105401CB2
:1053900004900198401E019004D12E205A4617997E
:1053A00090476D1CBAF10001AAF1010ADDDC05E0AD
:1053B00017F8010B5A46179990476D1CB8F1000178
:1053C000A8F10108F4DC5B462146179A0598ABE684
:1053D0002D0000002B000000200000002DE9F0410E
:1053E000044600251E461746880404D405E03946C5
:1053F0002020B0476D1C641EF9D52846BDE8F08119
:105400002DE9F041044600251E469046C80301D50B
:10541000302700E02027880404D505E041463846BF
:10542000B0476D1C641EF9D52846BDE8F0814A6876
:10543000002A06D00A68531C0B6010704868401E92
:10544000486070472DE9F041244D01222DED028B7B
:1054500080212846FBF7FBFE1E20FEF7C3FE00223C
:1054600080212846FBF7F3FE1D4C00272068476289
:1054700041F288369FED1B8A02E0406AB0420CD8A8
:1054800040212846FBF7DEFE00282068F5D0476261
:1054900046F2A81607E0B04205D9B0EE480ABDECC6
:1054A000028BBDE8F08140212846FBF7CBFE0128A6
:1054B0002068406AEFD0FAF7C7FF9FED0B1B53EC53
:1054C000112BFAF74FFF9FED0A1B53EC112BFAF744
:1054D00049FFFAF7C6FF00EE100AE0E700040240B9
:1054E0005402002000C079449CC420B07268A13FDF
:1054F000000000000000E03F9FED010AFFF7EAB95D
:105500000000B4C223215A20FBF785BA3C2108468B
:10551000FBF781BA9FED010AFFF7DCB90000B44246
:1055200041213C20FBF777BA3C214120FBF773BABD
:105530003C214B20FBF76FBA4B213C20FBF76BBAA9
:1055400050212D20FBF767BA2D215020FBF763BABD
:105550005A212320FBF75FBA0FB410B50D4C207809
:10556000002813D103AB4FF4C0710B48029AFFF728
:10557000CFFA0948FAF7E1FE0204120C06D0012026
:1055800020700549A1F14800FDF732FB10BC5DF821
:1055900014FB000000000020E402002010B5224CA3
:1055A00008283ED2DFE800F00406081021282F3634
:1055B00000221BE0002220E0002225E002212046FC
:1055C000FBF745FE002206E0002224E002212046EF
:1055D000FBF73DFE012204212046FBF738FE204662
:1055E000BDE810400821FBF72DBE01220121204615
:1055F000FBF72DFE0022E1E7012201212046FBF707
:1056000026FE0022E2E7012201212046FBF71FFED1
:105610000122D3E7012201212046FBF718FE0122D7
:10562000D4E74FF0FF3010BD0000024001460748AC
:1056300010B5406800F0B4FA002806D00448FBF723
:1056400013FE0348FBF7ACFF032010BDA0010020B0
:10565000B801002008B5FCF7CFF9FEF773FD8D48BF
:10566000C16841F40031C160C16841F48021C1606A
:10567000FEF76CFA88480024016841F4800101605B
:105680000068224600F48000009005213A20FCF7D3
:105690004DFA3A20FCF73DFAFEF7BCFA80487F4904
:1056A00001606321C0E901144FF6FF71C0E90314E2
:1056B0008461FCF76FFD08B172B6FEE7784879495E
:1056C0009C3801607849C0E901144FF48041C0E979
:1056D000034144618461C4610462FBF761FF08B166
:1056E00072B6FEE76E4D7148483528604FF416508B
:1056F000C5E901040C20EC60C5E90440AC61284612
:10570000EC61FDF7B7F908B172B6FEE76448002115
:105710004838FCF7D1FF624804214838FCF7CCFF39
:105720005F4808214838FCF7C7FF5D480C2148381E
:10573000FCF7C2FF5A48FCF77DFD2868C16841F0BC
:105740001001C1605A491422A1F5E470FDF740FA36
:1057500058A0FFF701FF5DA0FFF7FEFE00F0E2F8A2
:105760005D4800F0C8F95D4C5B4A0121606710326A
:10577000084600F043FAA067594A0421012000F0CE
:1057800031F9574A606418320421012000F02AF9E7
:10579000534AA06430320421012000F023F9504A1A
:1057A000E06448320421012000F01CF94C4A012138
:1057B00020656032084600F015F9494A012160650C
:1057C0007832084600F00EF9434A0121A065903A6C
:1057D000084600F007F9404A0121E065783A08469A
:1057E00000F000F93C4A01212066603A084600F0CA
:1057F000F9F8394A01216066483A084600F0F2F8A3
:10580000354A0121A066303A084600F0EBF8324AEA
:105810000121E066183A084600F0E4F82067314AB2
:105820000021314800F062FA2E4A606224320021E1
:105830002E4800F05BFA2B4AA062483200212C4827
:1058400000F054FA274AE0626C320021294800F047
:105850004DFA234A2063903A0021274800F046FA87
:105860001F4A60636C3A0021244800F03FFA1C4A4A
:10587000A063483A0021224800F038FA184AE06351
:10588000243A00211F4800F031FA206400F05CF84F
:10589000FEE70000002004E03038024000480140EC
:1058A0005402002000540040A08601000010014076
:1058B0006404002053797374656D20496E697469BE
:1058C000616C697A65640D0A000000005379737495
:1058D000656D200D0A000000E47C00080000002037
:1058E000C47B0008A47A0008253D00088D3D00080F
:1058F000653F0008D5400008A53E00080D4000089F
:10590000153F0008653E000810B5EFF3058111B1A1
:105910006FF0050403E0002408B100F0F1FF204619
:1059200010BD0000EFF3058010B16FF00500704767
:105930000448016811B14FF0FF3070470121016048
:10594000002070477001002010B5EFF3058010B102
:105950006FF0050010BD08480168012902D04FF022
:10596000FF3010BD054A002182F8141D022101609C
:1059700001F076F8002010BD700100200BE000E07F
:10598000F8B51D466FF003026FF002064FF00004F9
:10599000EFF30583A3B1F0B1E9B1E5B900220092BC
:1059A0006A4601F071FC012817D10098B0B10C498A
:1059B0004FF080500860BFF34F8FBFF36F8F0DE043
:1059C00048B141B12A4601F0C3FB012806D025B1F8
:1059D0006FF0010402E0144600E034462046F8BDB2
:1059E00004ED00E0F8B514464FF00005EFF3058232
:1059F00012BB08B301B3A4B1D4E9023263B1502A97
:105A00001AD32269C2B1676900FB01F6B74213D30A
:105A1000009501F0A9F907E072B9226962B96269DB
:105A200052B9002201F07FF9050005D00CB12168C0
:105A300000E0002100F002FF2846F8BDF8B51D4641
:105A40006FF003026FF002064FF00004EFF30583DE
:105A5000ABB100B3F9B1F5B90022134600926A4622
:105A600001F0AAFA012818D10098B8B10C494FF0FA
:105A700080500860BFF34F8FBFF36F8F0EE050B1BF
:105A800049B100232A4601F0E7F9012806D025B1E3
:105A90006FF0010402E0144600E034462046F8BDF1
:105AA00004ED00E02DE9F0410D46014621F0010032
:105AB00001F001014FF00004EFF305820AB1A41FC9
:105AC00016E048B100296FF001066FF00207294681
:105AD00008D001F0E3FC07E06FF0030408E035B103
